{
  "_format": "hh-sol-artifact-1",
  "contractName": "Marketplace",
  "sourceName": "contracts/Marketplace.sol",
  "abi": [
    {
      "inputs": [],
      "stateMutability": "nonpayable",
      "type": "constructor"
    },
    {
      "anonymous": false,
      "inputs": [],
      "name": "MissionComplete",
      "type": "event"
    },
    {
      "inputs": [],
      "name": "MATIC_PRICE",
      "outputs": [
        {
          "internalType": "uint256",
          "name": "",
          "type": "uint256"
        }
      ],
      "stateMutability": "view",
      "type": "function"
    },
    {
      "inputs": [],
      "name": "Status",
      "outputs": [
        {
          "internalType": "enum Marketplace.ShippingStatus",
          "name": "",
          "type": "uint8"
        }
      ],
      "stateMutability": "payable",
      "type": "function"
    },
    {
      "inputs": [],
      "name": "delivered",
      "outputs": [],
      "stateMutability": "nonpayable",
      "type": "function"
    },
    {
      "inputs": [],
      "name": "getStatus",
      "outputs": [
        {
          "internalType": "enum Marketplace.ShippingStatus",
          "name": "",
          "type": "uint8"
        }
      ],
      "stateMutability": "view",
      "type": "function"
    },
    {
      "inputs": [],
      "name": "owner",
      "outputs": [
        {
          "internalType": "address",
          "name": "",
          "type": "address"
        }
      ],
      "stateMutability": "view",
      "type": "function"
    },
    {
      "inputs": [],
      "name": "shipped",
      "outputs": [],
      "stateMutability": "nonpayable",
      "type": "function"
    },
    {
      "inputs": [],
      "name": "status",
      "outputs": [
        {
          "internalType": "enum Marketplace.ShippingStatus",
          "name": "",
          "type": "uint8"
        }
      ],
      "stateMutability": "view",
      "type": "function"
    }
  ],
  "bytecode": "0x608060405234801561001057600080fd5b5033600060016101000a81548173ffffffffffffffffffffffffffffffffffffffff021916908373ffffffffffffffffffffffffffffffffffffffff16021790555060008060006101000a81548160ff0219169083600281111561007757610076610081565b5b02179055506100b0565b7f4e487b7100000000000000000000000000000000000000000000000000000000600052602160045260246000fd5b6105d5806100bf6000396000f3fe6080604052600436106100705760003560e01c80638da5cb5b1161004e5780638da5cb5b146100e9578063ba446ae914610114578063bbdfbfba1461012b578063bbe8b30d1461014257610070565b8063200d2ed21461007557806345f09ce9146100a05780634e69d560146100be575b600080fd5b34801561008157600080fd5b5061008a61016d565b604051610097919061042b565b60405180910390f35b6100a861017e565b6040516100b5919061042b565b60405180910390f35b3480156100ca57600080fd5b506100d36101dd565b6040516100e0919061042b565b60405180910390f35b3480156100f557600080fd5b506100fe61024b565b60405161010b9190610487565b60405180910390f35b34801561012057600080fd5b50610129610271565b005b34801561013757600080fd5b506101406102f7565b005b34801561014e57600080fd5b506101576103a9565b60405161016491906104bb565b60405180910390f35b60008054906101000a900460ff1681565b6000662386f26fc100003410156101ca576040517f08c379a00000000000000000000000000000000000000000000000000000000081526004016101c19061057f565b60405180910390fd5b60008054906101000a900460ff16905090565b60008060019054906101000a900473ffffffffffffffffffffffffffffffffffffffff1673ffffffffffffffffffffffffffffffffffffffff163373ffffffffffffffffffffffffffffffffffffffff161461023857600080fd5b60008054906101000a900460ff16905090565b600060019054906101000a900473ffffffffffffffffffffffffffffffffffffffff1681565b600060019054906101000a900473ffffffffffffffffffffffffffffffffffffffff1673ffffffffffffffffffffffffffffffffffffffff163373ffffffffffffffffffffffffffffffffffffffff16146102cb57600080fd5b60016000806101000a81548160ff021916908360028111156102f0576102ef6103b4565b5b0217905550565b600060019054906101000a900473ffffffffffffffffffffffffffffffffffffffff1673ffffffffffffffffffffffffffffffffffffffff163373ffffffffffffffffffffffffffffffffffffffff161461035157600080fd5b60026000806101000a81548160ff02191690836002811115610376576103756103b4565b5b02179055507f36b3427b9db85e3915108cfe803971ea1ab2908152d7f72b55bf3a001c67a86560405160405180910390a1565b662386f26fc1000081565b7f4e487b7100000000000000000000000000000000000000000000000000000000600052602160045260246000fd5b600381106103f4576103f36103b4565b5b50565b6000819050610405826103e3565b919050565b6000610415826103f7565b9050919050565b6104258161040a565b82525050565b6000602082019050610440600083018461041c565b92915050565b600073ffffffffffffffffffffffffffffffffffffffff82169050919050565b600061047182610446565b9050919050565b61048181610466565b82525050565b600060208201905061049c6000830184610478565b92915050565b6000819050919050565b6104b5816104a2565b82525050565b60006020820190506104d060008301846104ac565b92915050565b600082825260208201905092915050565b7f4c6520706169656d656e7420646f69742065747265207375706572696575722060008201527f6f75206567616c206175206d6f6e74616e742072657175697320706f7572206f60208201527f6274656e6972206c65207374617475742e000000000000000000000000000000604082015250565b60006105696051836104d6565b9150610574826104e7565b606082019050919050565b600060208201905081810360008301526105988161055c565b905091905056fea2646970667358221220df8fe94a9f074cff4fe939b34845ee47fdb72e1e0211eaba3f3c599bac82dede64736f6c63430008110033",
  "linkReferences": {},
  "deployedLinkReferences": {}
}